41000420110307FCS  FB   000000151800000000010000000001NMCS  PR    WBCPB 00000000                         AUD01S00000000000000000000003800000000000000D   000000000000DAUD000000000000D   000000000000DAUD000000000000000000D000000000000000000000000000000000D   000000000000000000D000000000000413060C2011030420110309165047000000000000000001          AU0000WBCPB5000001087000000      00000000000 WBCPB           000000000000D   0      000000000000000000000000000000000        ASX TFR REQ              000000          #
41000420110307FCS  FB   000000151800000099910000000001NMCS  PR    WBCPB 00000000                         AUD01B00000000038000000000000000000000000000D   000000000000DAUD000000000000D   000000000000DAUD000000000000000000D000000000000000000000000000000000D   000000000000000000D000000000000413060D2011030420110309165048000000000000000001          AU0000WBCPB5000001087000000      00000000000 WBCPB           000000000000D   0      000000000000000000000000000000000        ASX TFR REQ              000000          #
41000420110307FCS  FB   000000151800000099910000000001NMCS  PR    WBCPB 00000000                         AUD01S00000000000000000000003800000000000000D   000000000000DAUD000000000000D   000000000000DAUD000000000000000000D000000000000000000000000000000000D   000000000000000000D000000000000411255C2011030420110309165050000000000000000001          AU0000WBCPB5000001082250000      00000000000 WBCPB           000000000000D   0      000000000000000000000000000000000        ASX TFR REQ              000000          #
41000420110307FCS  FB   000000151800000000910000000001CHESS ST    AQC   00000000                         AUD01B00000161389000000000000000000000000030DAUD000000000234DAUD000000000000D   000000000105DAUD000000000000000000D000000000000000000000000000000000D   000000000000000000D000000000001065167D2011030720110310012016000000001610017250          AU000000AQC5000000000660000NF90  00000000000 AQC         TRAD000000000000D   112    000000000000000000000000000000000        ASX                      000000          #
41000420110307FCS  FB   000000151800000000910000000001CHESS ST    AQC   00000000                         AUD01B00000038611000000000000000000000000007DAUD000000000056DAUD000000000000D   000000000025DAUD000000000000000000D000000000000000000000000000000000D   000000000000000000D000000000000254833D2011030720110310013449000000001610021559          AU000000AQC5000000000660000NF90  00000000000 AQC         TRAD000000000000D   112    000000000000000000000000000000000        ASX                      000000          #
41000420110307FCS  FB   000000151800000000910000000001CHESS ST    ATN   00000000                         AUD01S00000000000000000005500000000000000008DAUD000000000059DAUD000000000000D   000000000027DAUD000000000000000000D000000000000000000000000000000000D   000000000000000000D000000000000269500C2011030720110310003151000000001610000656          AU000000ATN6000000000490000NF90  00000000000 ATN         TRAD000000000000D   112    000000000000000000000000000000000        ASX                      000000          #
41000420110307FCS  FB   000000151800000000210000000001CHESS ST    CSE   00000000                         AUD01B00000013372000000000000000000000000005DAUD000000000040DAUD000000000000D   000000000018DAUD000000000000000000D000000000000000000000000000000000D   000000000000000000D000000000000180522D2011030720110310011005000000001610015113          AU000000CSE3000000001350000NF8   00000000000 CSE         TRAD000000000000D   112    000000000000000000000000000000000        ASX                      000000          #
41000420110307FCS  FB   000000151800000000210000000001CHESS ST    CSE   00000000                         AUD01B00000004285000000000000000000000000002DAUD000000000013DAUD000000000000D   000000000006DAUD000000000000000000D000000000000000000000000000000000D   000000000000000000D000000000000059990D2011030720110310026758000000001610060680          AU000000CSE3000000001400000NF8   00000000000 CSE         TRAD000000000000D   112    000000000000000000000000000000000        ASX                      000000          #
41000420110307FCS  FB   000000151800000000210000000001CHESS ST    CSE   00000000                         AUD01B00000100000000000000000000000000000040DAUD000000000308DAUD000000000000D   000000000139DAUD000000000000000000D000000000000000000000000000000000D   000000000000000000D000000000001400000D2011030720110310026887000000001610061178          AU000000CSE3000000001400000NF8   00000000000 CSE         TRAD000000000000D   112    000000000000000000000000000000000        ASX                      000000          #
41000420110307FCS  FB   000000151800000000210000000001CHESS ST    CSE   00000000                         AUD01B00000082343000000000000000000000000033DAUD000000000254DAUD000000000000D   000000000114DAUD000000000000000000D000000000000000000000000000000000D   000000000000000000D000000000001152802D2011030720110310028777000000001610067398          AU000000CSE3000000001400000NF8   00000000000 CSE         TRAD000000000000D   112    000000000000000000000000000000000        ASX                      000000          #
41000420110307FCS  FB   000000151800000000910000000001CHESS ST    MQG   00000000                         AUD01B00000000031000000000000000000000000003DAUD000000000025DAUD000000000000D   000000000011DAUD000000000000000000D000000000000000000000000000000000D   000000000000000000D000000000000113367D2011030720110310014323000000001620012184          AU000000MQG1000000365700000NF90  00000000000 MQG         TRAD000000000000D   112    000000000000000000000000000000000        ASX                      000000          #
41000420110307FCS  FB   000000151800000000910000000001CHESS ST    MQG   00000000                         AUD01B00000001969000000000000000000000000206DAUD000000001584DAUD000000000000D   000000000713DAUD000000000000000000D000000000000000000000000000000000D   000000000000000000D000000000007200633D2011030720110310014349000000001620012234          AU000000MQG1000000365700000NF90  00000000000 MQG         TRAD000000000000D   112    000000000000000000000000000000000        ASX                      000000          #
41000420110307FCS  FB   000000151800000000910000000001CHESS ST    MQG   00000000                         AUD01B00000000002000000000000000000000000000DAUD000000000002DAUD000000000000D   000000000001DAUD000000000000000000D000000000000000000000000000000000D   000000000000000000D000000000000007314D2011030720110310014414000000001620012418          AU000000MQG1000000365700000NF90  00000000000 MQG         TRAD000000000000D   112    000000000000000000000000000000000        ASX                      000000          #
41000420110307FCS  FB   000000151800000000910000000001CHESS ST    MQG   00000000                         AUD01B00000000036000000000000000000000000004DAUD000000000029DAUD000000000000D   000000000013DAUD000000000000000000D000000000000000000000000000000000D   000000000000000000D000000000000131652D2011030720110310014415000000001620012419          AU000000MQG1000000365700000NF90  00000000000 MQG         TRAD000000000000D   112    000000000000000000000000000000000        ASX                      000000          #
41000420110307FCS  FB   000000151800000000910000000001CHESS ST    MQG   00000000                         AUD01B00000000137000000000000000000000000014DAUD000000000110DAUD000000000000D   000000000050DAUD000000000000000000D000000000000000000000000000000000D   000000000000000000D000000000000501009D2011030720110310014416000000001620012420          AU000000MQG1000000365700000NF90  00000000000 MQG         TRAD000000000000D   112    000000000000000000000000000000000        ASX                      000000          #
41000420110307FCS  FB   000000151800000000910000000001CHESS ST    MQG   00000000                         AUD01B00000000002000000000000000000000000000DAUD000000000002DAUD000000000000D   000000000001DAUD000000000000000000D000000000000000000000000000000000D   000000000000000000D000000000000007314D2011030720110310014417000000001620012421          AU000000MQG1000000365700000NF90  00000000000 MQG         TRAD000000000000D   112    000000000000000000000000000000000        ASX                      000000          #
41000420110307FCS  FB   000000151800000000910000000001CHESS ST    MQG   00000000                         AUD01B00000000012000000000000000000000000001DAUD000000000010DAUD000000000000D   000000000004DAUD000000000000000000D000000000000000000000000000000000D   000000000000000000D000000000000043884D2011030720110310014418000000001620012422          AU000000MQG1000000365700000NF90  00000000000 MQG         TRAD000000000000D   112    000000000000000000000000000000000        ASX                      000000          #
41000420110307FCS  FB   000000151800000000910000000001CHESS ST    MQG   00000000                         AUD01B00000000071000000000000000000000000007DAUD000000000057DAUD000000000000D   000000000026DAUD000000000000000000D000000000000000000000000000000000D   000000000000000000D000000000000259647D2011030720110310014419000000001620012423          AU000000MQG1000000365700000NF90  00000000000 MQG         TRAD000000000000D   112    000000000000000000000000000000000        ASX                      000000          #
41000420110307FCS  FB   000000151800000000910000000001CHESS ST    MQG   00000000                         AUD01B00000000002000000000000000000000000000DAUD000000000002DAUD000000000000D   000000000001DAUD000000000000000000D000000000000000000000000000000000D   000000000000000000D000000000000007314D2011030720110310014420000000001620012424          AU000000MQG1000000365700000NF90  00000000000 MQG         TRAD000000000000D   112    000000000000000000000000000000000        ASX                      000000          #
41000420110307FCS  FB   000000151800000000910000000001CHESS ST    MQG   00000000                         AUD01B00000001238000000000000000000000000129DAUD000000000996DAUD000000000000D   000000000448DAUD000000000000000000D000000000000000000000000000000000D   000000000000000000D000000000004527366D2011030720110310014539000000001620012446          AU000000MQG1000000365700000NF90  00000000000 MQG         TRAD000000000000D   112    000000000000000000000000000000000        ASX                      000000          #
41000420110307FCS  FB   000000151800000000910000000001CHESS ST    MQG   00000000                         AUD01B00000000362000000000000000000000000038DAUD000000000291DAUD000000000000D   000000000131DAUD000000000000000000D000000000000000000000000000000000D   000000000000000000D000000000001322386D2011030720110310014826000000001620013205          AU000000MQG1000000365300000NF90  00000000000 MQG         TRAD000000000000D   112    000000000000000000000000000000000        ASX                      000000          #
41000420110307FCS  FB   000000151800000000910000000001CHESS ST    MQG   00000000                         AUD01B00000000480000000000000000000000000050DAUD000000000386DAUD000000000000D   000000000174DAUD000000000000000000D000000000000000000000000000000000D   000000000000000000D000000000001753440D2011030720110310014933000000001620013286          AU000000MQG1000000365300000NF90  00000000000 MQG         TRAD000000000000D   112    000000000000000000000000000000000        ASX                      000000          #
41000420110307FCS  FB   000000151800000000910000000001CHESS ST    MQG   00000000                         AUD01B00000000380000000000000000000000000040DAUD000000000305DAUD000000000000D   000000000137DAUD000000000000000000D000000000000000000000000000000000D   000000000000000000D000000000001388140D2011030720110310015006000000001620013477          AU000000MQG1000000365300000NF90  00000000000 MQG         TRAD000000000000D   112    000000000000000000000000000000000        ASX                      000000          #
41000420110307FCS  FB   000000151800000000910000000001CHESS ST    MQG   00000000                         AUD01B00000000183000000000000000000000000019DAUD000000000147DAUD000000000000D   000000000066DAUD000000000000000000D000000000000000000000000000000000D   000000000000000000D000000000000668499D2011030720110310015918000000001620015234          AU000000MQG1000000365300000NF90  00000000000 MQG         TRAD000000000000D   112    000000000000000000000000000000000        ASX                      000000          #
41000420110307FCS  FB   000000151800000000910000000001CHESS ST    MQG   00000000                         AUD01B00000000095000000000000000000000000010DAUD000000000076DAUD000000000000D   000000000034DAUD000000000000000000D000000000000000000000000000000000D   000000000000000000D000000000000347035D2011030720110310015938000000001620015265          AU000000MQG1000000365300000NF90  00000000000 MQG         TRAD000000000000D   112    000000000000000000000000000000000        ASX                      000000          #
41000420110307FCS  FB   000000151800000000910000000001CHESS ST    MXQ   00000000                         AUD01S00000000000000000004200000000000000017DAUD000000000134DAUD000000000000D   000000000060DAUD000000000000000000D000000000000000000000000000000000D   000000000000000000D000000000000609000C2011030720110310019289000000001620022048          AU000000MXQ6000000001450000NF90  00000000000 MXQ         TRAD000000000000D   112    000000000000000000000000000000000        ASX                      000000          #
41000420110307FCS  FB   000000151800000000910000000001CHESS ST    MXQ   00000000                         AUD01S00000000000000000000675000000000000003DAUD000000000022DAUD000000000000D   000000000010DAUD000000000000000000D000000000000000000000000000000000D   000000000000000000D000000000000097875C2011030720110310094989000000001620077883          AU000000MXQ6000000001450000NF90  00000000000 MXQ         TRAD000000000000D   112    000000000000000000000000000000000        ASX                      000000          #
41000420110307FCS  FB   000000151800000000910000000001CHESS ST    MXQ   00000000                         AUD01S00000000000000000020000000000000000083DAUD000000000638DAUD000000000000D   000000000287DAUD000000000000000000D000000000000000000000000000000000D   000000000000000000D000000000002900000C2011030720110310097710000000001620083838          AU000000MXQ6000000001450000NF90  00000000000 MXQ         TRAD000000000000D   112    000000000000000000000000000000000        ASX                      000000          #
41000420110307FCS  FB   000000151800000000910000000001CHESS ST    MXQ   00000000                         AUD01S00000000000000000000125000000000000001DAUD000000000004DAUD000000000000D   000000000002DAUD000000000000000000D000000000000000000000000000000000D   000000000000000000D000000000000018125C2011030720110310098548000000001620086529          AU000000MXQ6000000001450000NF90  00000000000 MXQ         TRAD000000000000D   112    000000000000000000000000000000000        ASX                      000000          #
41000420110307FCS  FB   000000151800000000240000000001CHESS ST    NCM   00000000                         AUD01S00000000000000000000004200000000000005DAUD000000000037DAUD000000000000D   000000000017DAUD000000000000000000D000000000000000000000000000000000D   000000000000000000D000000000000168840C2011030720110310030911000000001610073580          AU000000NCM7000000402000000NF10  00000000000 NCM         TRAD000000000000D   112    000000000000000000000000000000000        ASX                      000000          #
41000420110307FCS  FB   000000151800000000240000000001CHESS ST    NCM   00000000                         AUD01S00000000000000000000003700000000000004DAUD000000000033DAUD000000000000D   000000000015DAUD000000000000000000D000000000000000000000000000000000D   000000000000000000D000000000000148740C2011030720110310030912000000001610073581          AU000000NCM7000000402000000NF10  00000000000 NCM         TRAD000000000000D   112    000000000000000000000000000000000        ASX                      000000          #
41000420110307FCS  FB   000000151800000000240000000001CHESS ST    NCM   00000000                         AUD01S00000000000000000000001200000000000001DAUD000000000011DAUD000000000000D   000000000005DAUD000000000000000000D000000000000000000000000000000000D   000000000000000000D000000000000048240C2011030720110310030913000000001610073582          AU000000NCM7000000402000000NF10  00000000000 NCM         TRAD000000000000D   112    000000000000000000000000000000000        ASX                      000000          #
41000420110307FCS  FB   000000151800000000240000000001CHESS ST    NCM   00000000                         AUD01S00000000000000000000004500000000000005DAUD000000000040DAUD000000000000D   000000000018DAUD000000000000000000D000000000000000000000000000000000D   000000000000000000D000000000000180900C2011030720110310030914000000001610073583          AU000000NCM7000000402000000NF10  00000000000 NCM         TRAD000000000000D   112    000000000000000000000000000000000        ASX                      000000          #
41000420110307FCS  FB   000000151800000000240000000001CHESS ST    NCM   00000000                         AUD01S00000000000000000000004000000000000005DAUD000000000035DAUD000000000000D   000000000016DAUD000000000000000000D000000000000000000000000000000000D   000000000000000000D000000000000160800C2011030720110310030915000000001610073584          AU000000NCM7000000402000000NF10  00000000000 NCM         TRAD000000000000D   112    000000000000000000000000000000000        ASX                      000000          #
41000420110307FCS  FB   000000151800000000240000000001CHESS ST    NCM   00000000                         AUD01S00000000000000000000000600000000000001DAUD000000000005DAUD000000000000D   000000000002DAUD000000000000000000D000000000000000000000000000000000D   000000000000000000D000000000000024120C2011030720110310030916000000001610073585          AU000000NCM7000000402000000NF10  00000000000 NCM         TRAD000000000000D   112    000000000000000000000000000000000        ASX                      000000          #
41000420110307FCS  FB   000000151800000000240000000001CHESS ST    NCM   00000000                         AUD01S00000000000000000000000900000000000001DAUD000000000008DAUD000000000000D   000000000004DAUD000000000000000000D000000000000000000000000000000000D   000000000000000000D000000000000036180C2011030720110310030917000000001610073586          AU000000NCM7000000402000000NF10  00000000000 NCM         TRAD000000000000D   112    000000000000000000000000000000000        ASX                      000000          #
41000420110307FCS  FB   000000151800000000240000000001CHESS ST    NCM   00000000                         AUD01S00000000000000000000001200000000000001DAUD000000000011DAUD000000000000D   000000000005DAUD000000000000000000D000000000000000000000000000000000D   000000000000000000D000000000000048240C2011030720110310030918000000001610073587          AU000000NCM7000000402000000NF10  00000000000 NCM         TRAD000000000000D   112    000000000000000000000000000000000        ASX                      000000          #
41000420110307FCS  FB   000000151800000000240000000001CHESS ST    NCM   00000000                         AUD01S00000000000000000000034000000000000039DAUD000000000301DAUD000000000000D   000000000135DAUD000000000000000000D000000000000000000000000000000000D   000000000000000000D000000000001366800C2011030720110310030919000000001610073588          AU000000NCM7000000402000000NF10  00000000000 NCM         TRAD000000000000D   112    000000000000000000000000000000000        ASX                      000000          #
41000420110307FCS  FB   000000151800000000240000000001CHESS ST    NCM   00000000                         AUD01S00000000000000000000070800000000000081DAUD000000000626DAUD000000000000D   000000000282DAUD000000000000000000D000000000000000000000000000000000D   000000000000000000D000000000002846160C2011030720110310030926000000001610073660          AU000000NCM7000000402000000NF10  00000000000 NCM         TRAD000000000000D   112    000000000000000000000000000000000        ASX                      000000          #
41000420110307FCS  FB   000000151800000000240000000001CHESS ST    NCM   00000000                         AUD01S00000000000000000000174900000000000201DAUD000000001545DAUD000000000000D   000000000695DAUD000000000000000000D000000000000000000000000000000000D   000000000000000000D000000000007023984C2011030720110310031098000000001610074410          AU000000NCM7000000401600000NF10  00000000000 NCM         TRAD000000000000D   112    000000000000000000000000000000000        ASX                      000000          #
41000420110307FCS  FB   000000151800000000240000000001CHESS ST    NCM   00000000                         AUD01S00000000000000000000300000000000000343DAUD000000002640DAUD000000000000D   000000009240DAUD000000000000000000D000000000000000000000000000000000D   000000000000000000D000000000012000000C2011030720110310091250000000001610115881          AU000000NCM7000000400000000N24   00000000000 NCM         TRAD000000000000D   140    000000000000000000000000000000000        ASX                      000000          #
41000420110307FCS  FB   000000151800000000210000000001CHESS ST    QSS   00000000                         AUD01B00000047820000000000000000000000000007DAUD000000000055DAUD000000000000D   000000000025DAUD000000000000000000D000000000000000000000000000000000D   000000000000000000D000000000000248664D2011030720110310027862000000001620036350          AU000000QSS4000000000520000NF8   00000000000 QSS         TRAD000000000000D   112    000000000000000000000000000000000        ASX                      000000          #
41000420110307FCS  FB   000000151800000000910000000001CHESS ST    SRZ   00000000                         AUD01B00000040000000000000000000000000000025DAUD000000000194DAUD000000000000D   000000000087DAUD000000000000000000D000000000000000000000000000000000D   000000000000000000D000000000000880000D2011030720110310106048000000001610178340          AU000000SRZ6000000002200000NF90  00000000000 SRZ         TRAD000000000000D   112    000000000000000000000000000000000        ASX                      000000          #
41000420110307FCS  FB   000000151800000000240000000001CHESS ST    WEC   00000000                         AUD01B00000000967000000000000000000000000008DAUD000000000061DAUD000000000000D   000000000028DAUD000000000000000000D000000000000000000000000000000000D   000000000000000000D000000000000279463D2011030720110310021600000000001610044673          AU000000WEC5000000028900000NF10  00000000000 WEC         TRAD000000000000D   112    000000000000000000000000000000000        ASX                      000000          #
41000420110307FCS  FB   000000151800000000240000000001CHESS ST    WEC   00000000                         AUD01B00000001874000000000000000000000000015DAUD000000000119DAUD000000000000D   000000000054DAUD000000000000000000D000000000000000000000000000000000D   000000000000000000D000000000000541586D2011030720110310021601000000001610044674          AU000000WEC5000000028900000NF10  00000000000 WEC         TRAD000000000000D   112    000000000000000000000000000000000        ASX                      000000          #
41000420110307FCS  FB   000000151800000000240000000001CHESS ST    WEC   00000000                         AUD01B00000000618000000000000000000000000005DAUD000000000039DAUD000000000000D   000000000018DAUD000000000000000000D000000000000000000000000000000000D   000000000000000000D000000000000178602D2011030720110310021602000000001610044675          AU000000WEC5000000028900000NF10  00000000000 WEC         TRAD000000000000D   112    000000000000000000000000000000000        ASX                      000000          #
41000420110307FCS  FB   000000151800000000240000000001CHESS ST    WEC   00000000                         AUD01B00000002096000000000000000000000000017DAUD000000000133DAUD000000000000D   000000000060DAUD000000000000000000D000000000000000000000000000000000D   000000000000000000D000000000000605744D2011030720110310021603000000001610044676          AU000000WEC5000000028900000NF10  00000000000 WEC         TRAD000000000000D   112    000000000000000000000000000000000        ASX                      000000          #
41000420110307FCS  FB   000000151800000000240000000001CHESS ST    WEC   00000000                         AUD01B00000000232000000000000000000000000002DAUD000000000015DAUD000000000000D   000000000007DAUD000000000000000000D000000000000000000000000000000000D   000000000000000000D000000000000067048D2011030720110310021604000000001610044677          AU000000WEC5000000028900000NF10  00000000000 WEC         TRAD000000000000D   112    000000000000000000000000000000000        ASX                      000000          #
41000420110307FCS  FB   000000151800000000240000000001CHESS ST    WEC   00000000                         AUD01B00000002894000000000000000000000000024DAUD000000000184DAUD000000000000D   000000000083DAUD000000000000000000D000000000000000000000000000000000D   000000000000000000D000000000000836366D2011030720110310021605000000001610044678          AU000000WEC5000000028900000NF10  00000000000 WEC         TRAD000000000000D   112    000000000000000000000000000000000        ASX                      000000          #
41000420110307FCS  FB   000000151800000000240000000001CHESS ST    WEC   00000000                         AUD01B00000001683000000000000000000000000014DAUD000000000107DAUD000000000000D   000000000048DAUD000000000000000000D000000000000000000000000000000000D   000000000000000000D000000000000486387D2011030720110310021606000000001610044679          AU000000WEC5000000028900000NF10  00000000000 WEC         TRAD000000000000D   112    000000000000000000000000000000000        ASX                      000000          #
41000420110307FCS  FB   000000151800000000240000000001CHESS ST    WEC   00000000                         AUD01B00000000256000000000000000000000000002DAUD000000000016DAUD000000000000D   000000000007DAUD000000000000000000D000000000000000000000000000000000D   000000000000000000D000000000000073984D2011030720110310021607000000001610044680          AU000000WEC5000000028900000NF10  00000000000 WEC         TRAD000000000000D   112    000000000000000000000000000000000        ASX                      000000          #
41000420110307FCS  FB   000000151800000000240000000001CHESS ST    WEC   00000000                         AUD01B00000000380000000000000000000000000003DAUD000000000024DAUD000000000000D   000000000011DAUD000000000000000000D000000000000000000000000000000000D   000000000000000000D000000000000109820D2011030720110310021608000000001610044681          AU000000WEC5000000028900000NF10  00000000000 WEC         TRAD000000000000D   112    000000000000000000000000000000000        ASX                      000000          #
41000420110307FCS  FB   000000151800000000240000000001CHESS ST    WEC   00000000                         AUD01B00000000883000000000000000000000000007DAUD000000000056DAUD000000000000D   000000000025DAUD000000000000000000D000000000000000000000000000000000D   000000000000000000D000000000000255187D2011030720110310021648000000001610044948          AU000000WEC5000000028900000NF10  00000000000 WEC         TRAD000000000000D   112    000000000000000000000000000000000        ASX                      000000          #
41000420110307FCS  FB   000000151800000000240000000001CHESS ST    WEC   00000000                         AUD01B00000000690000000000000000000000000006DAUD000000000044DAUD000000000000D   000000000020DAUD000000000000000000D000000000000000000000000000000000D   000000000000000000D000000000000199410D2011030720110310021649000000001610044949          AU000000WEC5000000028900000NF10  00000000000 WEC         TRAD000000000000D   112    000000000000000000000000000000000        ASX                      000000          #
41000420110307FCS  FB   000000151800000000240000000001CHESS ST    WEC   00000000                         AUD01B00000001091000000000000000000000000009DAUD000000000069DAUD000000000000D   000000000031DAUD000000000000000000D000000000000000000000000000000000D   000000000000000000D000000000000315299D2011030720110310021650000000001610044950          AU000000WEC5000000028900000NF10  00000000000 WEC         TRAD000000000000D   112    000000000000000000000000000000000        ASX                      000000          #
41000420110307FCS  FB   000000151800000000240000000001CHESS ST    WEC   00000000                         AUD01B00000000515000000000000000000000000004DAUD000000000033DAUD000000000000D   000000000015DAUD000000000000000000D000000000000000000000000000000000D   000000000000000000D000000000000148835D2011030720110310021651000000001610044951          AU000000WEC5000000028900000NF10  00000000000 WEC         TRAD000000000000D   112    000000000000000000000000000000000        ASX                      000000          #
41000420110307FCS  FB   000000151800000000240000000001CHESS ST    WEC   00000000                         AUD01B00000001605000000000000000000000000013DAUD000000000102DAUD000000000000D   000000000046DAUD000000000000000000D000000000000000000000000000000000D   000000000000000000D000000000000463845D2011030720110310021652000000001610044952          AU000000WEC5000000028900000NF10  00000000000 WEC         TRAD000000000000D   112    000000000000000000000000000000000        ASX                      000000          #
41000420110307FCS  FB   000000151800000000240000000001CHESS ST    WEC   00000000                         AUD01B00000000132000000000000000000000000001DAUD000000000008DAUD000000000000D   000000000004DAUD000000000000000000D000000000000000000000000000000000D   000000000000000000D000000000000038148D2011030720110310021653000000001610044953          AU000000WEC5000000028900000NF10  00000000000 WEC         TRAD000000000000D   112    000000000000000000000000000000000        ASX                      000000          #
41000420110307FCS  FB   000000151800000000240000000001CHESS ST    WEC   00000000                         AUD01B00000001008000000000000000000000000008DAUD000000000064DAUD000000000000D   000000000029DAUD000000000000000000D000000000000000000000000000000000D   000000000000000000D000000000000292320D2011030720110310022485000000001610046799          AU000000WEC5000000029000000NF10  00000000000 WEC         TRAD000000000000D   112    000000000000000000000000000000000        ASX                      000000          #
41000420110307FCS  FB   000000151800000000240000000001CHESS ST    WEC   00000000                         AUD01B00000000690000000000000000000000000006DAUD000000000044DAUD000000000000D   000000000020DAUD000000000000000000D000000000000000000000000000000000D   000000000000000000D000000000000200100D2011030720110310022486000000001610046800          AU000000WEC5000000029000000NF10  00000000000 WEC         TRAD000000000000D   112    000000000000000000000000000000000        ASX                      000000          #
41000420110307FCS  FB   000000151800000000240000000001CHESS ST    WEC   00000000                         AUD01B00000000548000000000000000000000000005DAUD000000000035DAUD000000000000D   000000000016DAUD000000000000000000D000000000000000000000000000000000D   000000000000000000D000000000000158920D2011030720110310022487000000001610046801          AU000000WEC5000000029000000NF10  00000000000 WEC         TRAD000000000000D   112    000000000000000000000000000000000        ASX                      000000          #
41000420110307FCS  FB   000000151800000000240000000001CHESS ST    WEC   00000000                         AUD01B00000000797000000000000000000000000007DAUD000000000051DAUD000000000000D   000000000023DAUD000000000000000000D000000000000000000000000000000000D   000000000000000000D000000000000231130D2011030720110310022488000000001610046802          AU000000WEC5000000029000000NF10  00000000000 WEC         TRAD000000000000D   112    000000000000000000000000000000000        ASX                      000000          #
41000420110307FCS  FB   000000151800000000240000000001CHESS ST    WEC   00000000                         AUD01B00000002899000000000000000000000000024DAUD000000000185DAUD000000000000D   000000000083DAUD000000000000000000D000000000000000000000000000000000D   000000000000000000D000000000000840710D2011030720110310022489000000001610046803          AU000000WEC5000000029000000NF10  00000000000 WEC         TRAD000000000000D   112    000000000000000000000000000000000        ASX                      000000          #
41000420110307FCS  FB   000000151800000000240000000001CHESS ST    WEC   00000000                         AUD01B00000009058000000000000000000000000075DAUD000000000578DAUD000000000000D   000000000260DAUD000000000000000000D000000000000000000000000000000000D   000000000000000000D000000000002626820D2011030720110310022490000000001610046804          AU000000WEC5000000029000000NF10  00000000000 WEC         TRAD000000000000D   112    000000000000000000000000000000000        ASX                      000000          #
41000420110307FCS  FB   000000151800000000240000000001CHESS ST    WEC   00000000                         AUD01B00000000203000000000000000000000000002DAUD000000000013DAUD000000000000D   000000000006DAUD000000000000000000D000000000000000000000000000000000D   000000000000000000D000000000000059073D2011030720110310023325000000001610049518          AU000000WEC5000000029100000NF10  00000000000 WEC         TRAD000000000000D   112    000000000000000000000000000000000        ASX                      000000          #
41000420110307FCS  FB   000000151800000000240000000001CHESS ST    WEC   00000000                         AUD01B00000001287000000000000000000000000011DAUD000000000082DAUD000000000000D   000000000037DAUD000000000000000000D000000000000000000000000000000000D   000000000000000000D000000000000374517D2011030720110310023326000000001610049519          AU000000WEC5000000029100000NF10  00000000000 WEC         TRAD000000000000D   112    000000000000000000000000000000000        ASX                      000000          #
41000420110307FCS  FB   000000151800000000240000000001CHESS ST    WEC   00000000                         AUD01B00000000606000000000000000000000000005DAUD000000000039DAUD000000000000D   000000000017DAUD000000000000000000D000000000000000000000000000000000D   000000000000000000D000000000000176346D2011030720110310023327000000001610049520          AU000000WEC5000000029100000NF10  00000000000 WEC         TRAD000000000000D   112    000000000000000000000000000000000        ASX                      000000          #
41000420110307FCS  FB   000000151800000000240000000001CHESS ST    WEC   00000000                         AUD01B00000000579000000000000000000000000005DAUD000000000037DAUD000000000000D   000000000017DAUD000000000000000000D000000000000000000000000000000000D   000000000000000000D000000000000168489D2011030720110310023328000000001610049521          AU000000WEC5000000029100000NF10  00000000000 WEC         TRAD000000000000D   112    000000000000000000000000000000000        ASX                      000000          #
41000420110307FCS  FB   000000151800000000240000000001CHESS ST    WEC   00000000                         AUD01B00000005000000000000000000000000000042DAUD000000000320DAUD000000000000D   000000000144DAUD000000000000000000D000000000000000000000000000000000D   000000000000000000D000000000001455000D2011030720110310023329000000001610049522          AU000000WEC5000000029100000NF10  00000000000 WEC         TRAD000000000000D   112    000000000000000000000000000000000        ASX                      000000          #
41000420110307FCS  FB   000000151800000000240000000001CHESS ST    WEC   00000000                         AUD01B00000000797000000000000000000000000007DAUD000000000051DAUD000000000000D   000000000023DAUD000000000000000000D000000000000000000000000000000000D   000000000000000000D000000000000231927D2011030720110310023330000000001610049523          AU000000WEC5000000029100000NF10  00000000000 WEC         TRAD000000000000D   112    000000000000000000000000000000000        ASX                      000000          #
41000420110307FCS  FB   000000151800000000240000000001CHESS ST    WEC   00000000                         AUD01B00000001528000000000000000000000000013DAUD000000000098DAUD000000000000D   000000000044DAUD000000000000000000D000000000000000000000000000000000D   000000000000000000D000000000000444648D2011030720110310023331000000001610049524          AU000000WEC5000000029100000NF10  00000000000 WEC         TRAD000000000000D   112    000000000000000000000000000000000        ASX                      000000          #
41000420110307FCS  FB   000000151800000000240000000001CHESS ST    WEC   00000000                         AUD01B00000001788000000000000000000000000015DAUD000000000114DAUD000000000000D   000000000052DAUD000000000000000000D000000000000000000000000000000000D   000000000000000000D000000000000520308D2011030720110310023353000000001610049580          AU000000WEC5000000029100000NF10  00000000000 WEC         TRAD000000000000D   112    000000000000000000000000000000000        ASX                      000000          #
41000420110307FCS  FB   000000151800000000240000000001CHESS ST    WEC   00000000                         AUD01B00000001223000000000000000000000000010DAUD000000000078DAUD000000000000D   000000000035DAUD000000000000000000D000000000000000000000000000000000D   000000000000000000D000000000000355893D2011030720110310023354000000001610049581          AU000000WEC5000000029100000NF10  00000000000 WEC         TRAD000000000000D   112    000000000000000000000000000000000        ASX                      000000          #
41000420110307FCS  FB   000000151800000000240000000001CHESS ST    WEC   00000000                         AUD01B00000001061000000000000000000000000009DAUD000000000068DAUD000000000000D   000000000031DAUD000000000000000000D000000000000000000000000000000000D   000000000000000000D000000000000308751D2011030720110310023355000000001610049582          AU000000WEC5000000029100000NF10  00000000000 WEC         TRAD000000000000D   112    000000000000000000000000000000000        ASX                      000000          #
41000420110307FCS  FB   000000151800000000240000000001CHESS ST    WEC   00000000                         AUD01B00000001053000000000000000000000000009DAUD000000000067DAUD000000000000D   000000000030DAUD000000000000000000D000000000000000000000000000000000D   000000000000000000D000000000000306423D2011030720110310023356000000001610049583          AU000000WEC5000000029100000NF10  00000000000 WEC         TRAD000000000000D   112    000000000000000000000000000000000        ASX                      000000          #
41000420110307FCS  FB   000000151800000000240000000001CHESS ST    WEC   00000000                         AUD01B00000000763000000000000000000000000006DAUD000000000049DAUD000000000000D   000000000022DAUD000000000000000000D000000000000000000000000000000000D   000000000000000000D000000000000222033D2011030720110310023357000000001610049584          AU000000WEC5000000029100000NF10  00000000000 WEC         TRAD000000000000D   112    000000000000000000000000000000000        ASX                      000000          #
41000420110307FCS  FB   000000151800000000240000000001CHESS ST    WEC   00000000                         AUD01B00000000618000000000000000000000000005DAUD000000000040DAUD000000000000D   000000000018DAUD000000000000000000D000000000000000000000000000000000D   000000000000000000D000000000000179838D2011030720110310023358000000001610049585          AU000000WEC5000000029100000NF10  00000000000 WEC         TRAD000000000000D   112    000000000000000000000000000000000        ASX                      000000          #
41000420110307FCS  FB   000000151800000000240000000001CHESS ST    WEC   00000000                         AUD01B00000001126000000000000000000000000009DAUD000000000072DAUD000000000000D   000000000032DAUD000000000000000000D000000000000000000000000000000000D   000000000000000000D000000000000327666D2011030720110310023359000000001610049586          AU000000WEC5000000029100000NF10  00000000000 WEC         TRAD000000000000D   112    000000000000000000000000000000000        ASX                      000000          #
41000420110307FCS  FB   000000151800000000240000000001CHESS ST    WEC   00000000                         AUD01B00000000051000000000000000000000000000DAUD000000000003DAUD000000000000D   000000000001DAUD000000000000000000D000000000000000000000000000000000D   000000000000000000D000000000000014841D2011030720110310023360000000001610049587          AU000000WEC5000000029100000NF10  00000000000 WEC         TRAD000000000000D   112    000000000000000000000000000000000        ASX                      000000          #
41000420110307FCS  FB   000000151800000000240000000001CHESS ST    WEC   00000000                         AUD01B00000001486000000000000000000000000012DAUD000000000095DAUD000000000000D   000000000043DAUD000000000000000000D000000000000000000000000000000000D   000000000000000000D000000000000432426D2011030720110310023361000000001610049588          AU000000WEC5000000029100000NF10  00000000000 WEC         TRAD000000000000D   112    000000000000000000000000000000000        ASX                      000000          #
41000420110307FCS  FB   000000151800000000240000000001CHESS ST    WEC   00000000                         AUD01B00000000915000000000000000000000000008DAUD000000000059DAUD000000000000D   000000000026DAUD000000000000000000D000000000000000000000000000000000D   000000000000000000D000000000000266265D2011030720110310023362000000001610049589          AU000000WEC5000000029100000NF10  00000000000 WEC         TRAD000000000000D   112    000000000000000000000000000000000        ASX                      000000          #
41000420110307FCS  FB   000000151800000000910000000001CHESS WA    AXMR  00000000                         AUD01B00001286940000000000000000000000000010DAUD000000000057DAUD000000000000D   000000000025DAUD000000000000000000D000000000000000000000000000000000D   000000000000000000D000000000000257388D2011030720110310015301000000001610027598          AU00000AXMR9000000000020000NF90  00000000000 AXMR        TRAD000000000000D   112   C201103150000000000100000001000000        ASX                      000000          #
41000420110307FCS  FB   000000151800000000910000000001CHESS WA    AXMR  00000000                         AUD01B00002000000000000000000000000000000016DAUD000000000088DAUD000000000000D   000000000040DAUD000000000000000000D000000000000000000000000000000000D   000000000000000000D000000000000400000D2011030720110310015303000000001610027599          AU00000AXMR9000000000020000NF90  00000000000 AXMR        TRAD000000000000D   112   C201103150000000000100000001000000        ASX                      000000          #
41000420110307FCS  FB   000000151800000000910000000001CHESS WA    AXMR  00000000                         AUD01B00001713060000000000000000000000000014DAUD000000000075DAUD000000000000D   000000000034DAUD000000000000000000D000000000000000000000000000000000D   000000000000000000D000000000000342612D2011030720110310015305000000001610027600          AU00000AXMR9000000000020000NF90  00000000000 AXMR        TRAD000000000000D   112   C201103150000000000100000001000000        ASX                      000000          #
41000420110307FCS  FB   000000151900000003130000000001CHES6 NO    IANG  00000000                         AUD01S00000000000000000000003700000000000015DAUD000000000083DAUD000000000000D   000000000037DAUD000000000000000000D000000000000000000000000000000000D   000000000000000000D000000000000377770C2011030720110310027012000000001630054186          AU00000IANG1000001021000000NF26  00000000000 IANG        TRAD000000000000D   112    000000000000000000000000000000000        ASX                      000000          #
41000420110307FCS  FB   000000151900000003130000000001CHES6 NO    NABHA 00000000                         AUD01S00000000000000000000006000000000000019DAUD000000000108DAUD000000000000D   000000000049DAUD000000000000000000D000000000000000000000000000000000D   000000000000000000D000000000000489900C2011030720110310026486000000001620033475          AU0000NABHA7000000816500000NF26  00000000000 NABHA       TRAD000000000000D   112    000000000000000000000000000000000        ASX                      000000          #
41000420110307FCS  FB   000000151900000003130000000001CHES6 NO    NFNG  00000000                         AUD01S00000000000000000000002300000000000007DAUD000000000036DAUD000000000000D   000000000016DAUD000000000000000000D000000000000000000000000000000000D   000000000000000000D000000000000165830C2011030720110310100308000000001630133048          NZFCND0004S9000000721000000NF26  00000000000 NFNG        TRAD000000000000D   112    000000000000000000000000000000000        ASX                      000000          #
41000420110307FCS  FB   000000151900000003130000000001CHES6 NO    SAKHA 00000000                         AUD01S00000000000000000000004100000000000016DAUD000000000089DAUD000000000000D   000000000040DAUD000000000000000000D000000000000000000000000000000000D   000000000000000000D000000000000405080C2011030720110310100442000000001630133861          AU0000SAKHA7000000988000000NF26  00000000000 SAKHA       TRAD000000000000D   112    000000000000000000000000000000000        ASX                      000000          #
41000420110307FCS  FB   000000151900000003130000000001CHES6 NO    TAHHA 00000000                         AUD01S00000000000000000000003200000000000013DAUD000000000074DAUD000000000000D   000000000033DAUD000000000000000000D000000000000000000000000000000000D   000000000000000000D000000000000336960C2011030720110310085136000000001640074126          AU0000TAHHA1000001053000000NF26  00000000000 TAHHA       TRAD000000000000D   112    000000000000000000000000000000000        ASX                      000000          #
41000420110307FCS  FB   000000151900000080020000000001CHES6 NO    TAHHA 00000000                         AUD01S00000000000000000000011700000000000049DAUD000000000271DAUD000000000000D   000000000122DAUD000000000000000000D000000000000000000000000000000000D   000000000000000000D000000000001233180C2011030720110310095195000000001640103479          AU0000TAHHA1000001054000000S80   00000000000 TAHHA       TRAD000000000000D   112    000000000000000000000000000000000        ASX                      000000          #
41000420110307FCS  FB   000000151900000003130000000001CHES6 NO    WOWHB 00000000                         AUD01S00000000000000000000005000000000000020DAUD000000000109DAUD000000000000D   000000000049DAUD000000000000000000D000000000000000000000000000000000D   000000000000000000D000000000000495750C2011030720110310026326000000001640043884          AU0000WOWHB3000000991500000NF26  00000000000 WOWHB       TRAD000000000000D   112    000000000000000000000000000000000        ASX                      000000          #
41000420110307FCS  FB   000000151900000003130000000001CHES6 PR    ANZPB 00000000                         AUD01S00000000000000000000005000000000000014DAUD000000000111DAUD000000000000D   000000000050DAUD000000000000000000D000000000000000000000000000000000D   000000000000000000D000000000000503250C2011030720110310027820000000001620036142          AU0000ANZPB7000001006500000NF26  00000000000 ANZPB       TRAD000000000000D   112    000000000000000000000000000000000        ASX                      000000          #
41000420110307FCS  FB   000000151900000003130000000001CHES6 PR    BENPA 00000000                         AUD01S00000000000000000000003500000000000010DAUD000000000079DAUD000000000000D   000000000036DAUD000000000000000000D000000000000000000000000000000000D   000000000000000000D000000000000360675C2011030720110310098015000000001620085282          AU0000BENPA2000001030500000NF26  00000000000 BENPA       TRAD000000000000D   112    000000000000000000000000000000000        ASX                      000000          #
41000420110307FCS  FB   000000151900000003130000000001CHES6 PR    DXRPA 00000000                         AUD01S00000000000000000000002700000000000007DAUD000000000055DAUD000000000000D   000000000025DAUD000000000000000000D000000000000000000000000000000000D   000000000000000000D000000000000251910C2011030720110310100243000000001620089534          AU0000DXRPA9000000933000000NF26  00000000000 DXRPA       TRAD000000000000D   112    000000000000000000000000000000000        ASX                      000000          #
41000420110307FCS  FB   000000151900000003130000000001CHES6 PR    FXJPB 00000000                         AUD01S00000000000000000000002700000000000008DAUD000000000061DAUD000000000000D   000000000027DAUD000000000000000000D000000000000000000000000000000000D   000000000000000000D000000000000275319C2011030720110310025328000000001640041346          AU0000FXJPB9000001019700000NF26  00000000000 FXJPB       TRAD000000000000D   112    000000000000000000000000000000000        ASX                      000000          #
41000420110307FCS  FB   000000151900000003130000000001CHES6 PR    GMPPA 00000000                         AUD01S00000000000000000000003400000000000007DAUD000000000055DAUD000000000000D   000000000025DAUD000000000000000000D000000000000000000000000000000000D   000000000000000000D000000000000251600C2011030720110310103473000000001630144874          AU0000GMPPA9000000740000000NF26  00000000000 GMPPA       TRAD000000000000D   112    000000000000000000000000000000000        ASX                      000000          #
41000420110307FCS  FB   000000151900000080020000000001CHES6 PR    IAGPA 00000000                         AUD01S00000000000000000000003900000000000011DAUD000000000087DAUD000000000000D   000000000039DAUD000000000000000000D000000000000000000000000000000000D   000000000000000000D000000000000396825C2011030720110310002934000000001620000112          AU0000IAGPA9000001017500000S80   00000000000 IAGPA       TRAD000000000000D   112    000000000000000000000000000000000        ASX                      000000          #
41000420110307FCS  FB   000000151900000080020000000001CHES6 PR    IAGPA 00000000                         AUD01S00000000000000000000006300000000000018DAUD000000000141DAUD000000000000D   000000000063DAUD000000000000000000D000000000000000000000000000000000D   000000000000000000D000000000000641025C2011030720110310091321000000001620068539          AU0000IAGPA9000001017500000S80   00000000000 IAGPA       TRAD000000000000D   112    000000000000000000000000000000000        ASX                      000000          #
41000420110307FCS  FB   000000151900000003130000000001CHES6 PR    IAGPA 00000000                         AUD01S00000000000000000000003600000000000010DAUD000000000081DAUD000000000000D   000000000036DAUD000000000000000000D000000000000000000000000000000000D   000000000000000000D000000000000366120C2011030720110310098184000000001620085515          AU0000IAGPA9000001017000000NF26  00000000000 IAGPA       TRAD000000000000D   112    000000000000000000000000000000000        ASX                      000000          #
41000420110307FCS  FB   000000151900000003130000000001CHES6 PR    MQCPA 00000000                         AUD01S00000000000000000000003300000000000010DAUD000000000078DAUD000000000000D   000000000035DAUD000000000000000000D000000000000000000000000000000000D   000000000000000000D000000000000354585C2011030720110310026596000000001630053000          AU0000MQCPA6000001074500000NF26  00000000000 MQCPA       TRAD000000000000D   112    000000000000000000000000000000000        ASX                      000000          #
41000420110307FCS  FB   000000151900000003130000000001CHES6 PR    MXUPA 00000000                         AUD01S00000000000000000000002900000000000007DAUD000000000052DAUD000000000000D   000000000023DAUD000000000000000000D000000000000000000000000000000000D   000000000000000000D000000000000234755C2011030720110310087293000000001620061088          AU0000MXUPA4000000809500000NF26  00000000000 MXUPA       TRAD000000000000D   112    000000000000000000000000000000000        ASX                      000000          #
41000420110307FCS  FB   000000151900000003130000000001CHES6 PR    ORIPB 00000000                         AUD01S00000000000000000000003700000000000011DAUD000000000081DAUD000000000000D   000000000037DAUD000000000000000000D000000000000000000000000000000000D   000000000000000000D000000000000369815C2011030720110310028879000000001610067644          AU0000ORIPB5000000999500000NF26  00000000000 ORIPB       TRAD000000000000D   112    000000000000000000000000000000000        ASX                      000000          #
41000420110307FCS  FB   000000151900000003130000000001CHES6 PR    RHCPA 00000000                         AUD01S00000000000000000000002400000000000007DAUD000000000054DAUD000000000000D   000000000024DAUD000000000000000000D000000000000000000000000000000000D   000000000000000000D000000000000245760C2011030720110310098229000000001640114098          AU0000RHCPA4000001024000000NF26  00000000000 RHCPA       TRAD000000000000D   112    000000000000000000000000000000000        ASX                      000000          #
41000420110307FCS  FB   000000151900000003130000000001CHES6 PR    TPAPA 00000000                         AUD01S00000000000000000000003100000000000007DAUD000000000050DAUD000000000000D   000000000023DAUD000000000000000000D000000000000000000000000000000000D   000000000000000000D000000000000229245C2011030720110310026026000000001620032463          AU0000TPAPA7000000739500000NF26  00000000000 TPAPA       TRAD000000000000D   112    000000000000000000000000000000000        ASX                      000000          #
41000420110307FCS  FB   000000151900000000220000000001NMCS  PR    WBCPB 00000000                         AUD01B00000000038000000000000000000000000000D   000000000000DAUD000000000000D   000000000000DAUD000000000000000000D000000000000000000000000000000000D   000000000000000000D000000000000411255D2011030420110309165049000000000000000001          AU0000WBCPB5000001082250000      00000000000 WBCPB           000000000000D   0      000000000000000000000000000000000        ASX TFR REQ              000000          #
41000420110307FCS  FB   000000151900000003130000000001CHES6 PR    WCTPA 00000000                         AUD01S00000000000000000000001900000000000005DAUD000000000039DAUD000000000000D   000000000017DAUD000000000000000000D000000000000000000000000000000000D   000000000000000000D000000000000175750C2011030720110310087169000000001620060856          AU0000WCTPA9000000925000000NF26  00000000000 WCTPA       TRAD000000000000D   112    000000000000000000000000000000000        ASX                      000000          #
41000420110307FCS  FB   000000151900000003130000000001CHES6 PR    WCTPA 00000000                         AUD01S00000000000000000000002600000000000007DAUD000000000052DAUD000000000000D   000000000024DAUD000000000000000000D000000000000000000000000000000000D   000000000000000000D000000000000237952C2011030720110310103435000000001620097826          AU0000WCTPA9000000915200000NF26  00000000000 WCTPA       TRAD000000000000D   112    000000000000000000000000000000000        ASX                      000000          #
41000420110307FCS  FB   000000151900000003130000000001CHES6 ST    AAZPB 00000000                         AUD01S00000000000000000000002600000000000007DAUD000000000054DAUD000000000000D   000000000024DAUD000000000000000000D000000000000000000000000000000000D   000000000000000000D000000000000243620C2011030720110310091824000000001620070274          AU0000AAZPB4000000937000000NF26  00000000000 AAZPB       TRAD000000000000D   112    000000000000000000000000000000000        ASX                      000000          #
41000420110307FCS  FB   000000151900000008000000000001CHES6 ST    AGO   00000000                         AUD01S00000000000000000000023400000000000003DAUD000000000019DAUD000000000000D   000000000009DAUD000000000000000000D000000000000000000000000000000000D   000000000000000000D000000000000088218C2011030720110310024185000000001610051964          AU000000AGO1000000037700000NF32  00000000000 AGO         TRAD000000000000D   112    000000000000000000000000000000000        ASX                      000000          #
41000420110307FCS  FB   000000151900000008000000000001CHES6 ST    AGO   00000000                         AUD01S00000000000000000000015800000000000002DAUD000000000013DAUD000000000000D   000000000006DAUD000000000000000000D000000000000000000000000000000000D   000000000000000000D000000000000059566C2011030720110310024186000000001610051965          AU000000AGO1000000037700000NF32  00000000000 AGO         TRAD000000000000D   112    000000000000000000000000000000000        ASX                      000000          #
41000420110307FCS  FB   000000151900000008000000000001CHES6 ST    AQG   00000000                         AUD01S00000000000000000000022800000000000006DAUD000000000047DAUD000000000000D   000000000021DAUD000000000000000000D000000000000000000000000000000000D   000000000000000000D000000000000212040C2011030720110310024192000000001610052015          AU000000AQG6000000093000000NF32  00000000000 AQG         TRAD000000000000D   112    000000000000000000000000000000000        ASX                      000000          #
41000420110307FCS  FB   000000151900000008000000000001CHES6 ST    ASL   00000000                         AUD01S00000000000000000000016700000000000002DAUD000000000014DAUD000000000000D   000000000006DAUD000000000000000000D000000000000000000000000000000000D   000000000000000000D000000000000061623C2011030720110310024204000000001610052062          AU000000ASL2000000036900000NF32  00000000000 ASL         TRAD000000000000D   112    000000000000000000000000000000000        ASX                      000000          #
41000420110307FCS  FB   000000151900000008000000000001CHES6 ST    ASL   00000000                         AUD01S00000000000000000000032600000000000003DAUD000000000026DAUD000000000000D   000000000012DAUD000000000000000000D000000000000000000000000000000000D   000000000000000000D000000000000120294C2011030720110310024205000000001610052063          AU000000ASL2000000036900000NF32  00000000000 ASL         TRAD000000000000D   112    000000000000000000000000000000000        ASX                      000000          #
41000420110307FCS  FB   000000151900000007000000000001DVPNXTST    BHP   00000000                         AUD01B00000004517000000000000000000000000000DAUD000000008134DAUD000000000000D   000000023239DAUD000000000000000000D000000000000000000000000000000000D   000000000000000000D000000000021126009D2011030720110310146921000000000000800051          AU000000BHP4000000467700000      00000000000 BHP         TRAD000000000176D   02442  000000000000000000000000000000000        ASX                      000000          #
41000420110307FCS  FB   000000151900000008000000000001CHES6 ST    BXB   00000000                         AUD01S00000000000000000000039600000000000008DAUD000000000062DAUD000000000000D   000000000028DAUD000000000000000000D000000000000000000000000000000000D   000000000000000000D000000000000282744C2011030720110310024244000000001630045908          AU000000BXB1000000071400000NF32  00000000000 BXB         TRAD000000000000D   112    000000000000000000000000000000000        ASX                      000000          #
41000420110307FCS  FB   000000151900000003130000000001CHES6 ST    CBAPA 00000000                         AUD01S00000000000000000000001700000000000010DAUD000000000077DAUD000000000000D   000000000035DAUD000000000000000000D000000000000000000000000000000000D   000000000000000000D000000000000351730C2011030720110310025257000000001620030723          AU0000CBAPA3000002069000000NF26  00000000000 CBAPA       TRAD000000000000D   112    000000000000000000000000000000000        ASX                      000000          #
41000420110307FCS  FB   000000151900000080020000000001CHES6 ST    CBAPA 00000000                         AUD01B00000000050000000000000000000000000030DAUD000000000228DAUD000000000000D   000000000102DAUD000000000000000000D000000000000000000000000000000000D   000000000000000000D000000000001034250D2011030720110310039560000000001620053000          AU0000CBAPA3000002068500000S80   00000000000 CBAPA       TRAD000000000000D   112    000000000000000000000000000000000        ASX                      000000          #
41000420110307FCS  FB   000000151900000080020000000001CHES6 ST    CBAPA 00000000                         AUD01B00000000444000000000000000000000000263DAUD000000002021DAUD000000000000D   000000000909DAUD000000000000000000D000000000000000000000000000000000D   000000000000000000D000000000009184140D2011030720110310044098000000001620054055          AU0000CBAPA3000002068500000S80   00000000000 CBAPA       TRAD000000000000D   112    000000000000000000000000000000000        ASX                      000000          #
41000420110307FCS  FB   000000151900000080020000000001CHES6 ST    CBAPA 00000000                         AUD01B00000000011000000000000000000000000007DAUD000000000050DAUD000000000000D   000000000023DAUD000000000000000000D000000000000000000000000000000000D   000000000000000000D000000000000227425D2011030720110310066245000000001620056073          AU0000CBAPA3000002067500000S80   00000000000 CBAPA       TRAD000000000000D   112    000000000000000000000000000000000        ASX                      000000          #
41000420110307FCS  FB   000000151900000080020000000001CHES6 ST    CBAPA 00000000                         AUD01B00000000024000000000000000000000000014DAUD000000000109DAUD000000000000D   000000000049DAUD000000000000000000D000000000000000000000000000000000D   000000000000000000D000000000000495960D2011030720110310092477000000001620071617          AU0000CBAPA3000002066500000S80   00000000000 CBAPA       TRAD000000000000D   112    000000000000000000000000000000000        ASX                      000000          #
41000420110307FCS  FB   000000151900000003130000000001CHES6 ST    CBAPB 00000000                         AUD01S00000000000000000000001900000000000011DAUD000000000082DAUD000000000000D   000000000037DAUD000000000000000000D000000000000000000000000000000000D   000000000000000000D000000000000372970C2011030720110310081931000000001620056575          AU0000CBAPB1000001963000000NF26  00000000000 CBAPB       TRAD000000000000D   112    000000000000000000000000000000000        ASX                      000000          #
41000420110307FCS  FB   000000151900000080020000000001CHES6 ST    CBAPB 00000000                         AUD01B00000000002000000000000000000000000001DAUD000000000009DAUD000000000000D   000000000004DAUD000000000000000000D000000000000000000000000000000000D   000000000000000000D000000000000039230D2011030720110310090904000000001620067215          AU0000CBAPB1000001961500000S80   00000000000 CBAPB       TRAD000000000000D   112    000000000000000000000000000000000        ASX                      000000          #
41000420110307FCS  FB   000000151900000080020000000001CHES6 ST    CBAPB 00000000                         AUD01B00000000001000000000000000000000000001DAUD000000000004DAUD000000000000D   000000000002DAUD000000000000000000D000000000000000000000000000000000D   000000000000000000D000000000000019630D2011030720110310092010000000001620070541          AU0000CBAPB1000001963000000S80   00000000000 CBAPB       TRAD000000000000D   112    000000000000000000000000000000000        ASX                      000000          #
41000420110307FCS  FB   000000151900000080020000000001CHES6 ST    CEU   00000000                         AUD01S00000000000000000000124200000000000002DAUD000000000012DAUD000000000000D   000000000006DAUD000000000000000000D000000000000000000000000000000000D   000000000000000000D000000000000055890C2011030720110310109355000000001630164672          AU000000CEU9000000004500000S80   00000000000 CEU         TRAD000000000000D   112    000000000000000000000000000000000        ASX                      000000          #
41000420110307FCS  FB   000000151900000080020000000001CHES6 ST    CEU   00000000                         AUD01S00000000000000000000575300000000000007DAUD000000000057DAUD000000000000D   000000000026DAUD000000000000000000D000000000000000000000000000000000D   000000000000000000D000000000000258885C2011030720110310109356000000001630164674          AU000000CEU9000000004500000S80   00000000000 CEU         TRAD000000000000D   112    000000000000000000000000000000000        ASX                      000000          #
41000420110307FCS  FB   000000151900000008000000000001CHES6 ST    CLO   00000000                         AUD01S00000000000000000000074400000000000002DAUD000000000014DAUD000000000000D   000000000006DAUD000000000000000000D000000000000000000000000000000000D   000000000000000000D000000000000063240C2011030720110310024253000000001630045970          AU000000CLO7000000008500000NF32  00000000000 CLO         TRAD000000000000D   112    000000000000000000000000000000000        ASX                      000000          #
41000420110307FCS  FB   000000151900000008000000000001CHES6 ST    CLO   00000000                         AUD01S00000000000000000000061000000000000001DAUD000000000011DAUD000000000000D   000000000005DAUD000000000000000000D000000000000000000000000000000000D   000000000000000000D000000000000051850C2011030720110310024254000000001630045971          AU000000CLO7000000008500000NF32  00000000000 CLO         TRAD000000000000D   112    000000000000000000000000000000000        ASX                      000000          #
41000420110307FCS  FB   000000151900000008000000000001CHES6 ST    CLO   00000000                         AUD01S00000000000000000000000400000000000000DAUD000000000000DAUD000000000000D   000000000000DAUD000000000000000000D000000000000000000000000000000000D   000000000000000000D000000000000000340C2011030720110310024255000000001630045972          AU000000CLO7000000008500000NF32  00000000000 CLO         TRAD000000000000D   112    000000000000000000000000000000000        ASX                      000000          #
41000420110307FCS  FB   000000151900000008000000000001CHES6 ST    CLO   00000000                         AUD01S00000000000000000000163700000000000004DAUD000000000031DAUD000000000000D   000000000014DAUD000000000000000000D000000000000000000000000000000000D   000000000000000000D000000000000139145C2011030720110310024256000000001630045975          AU000000CLO7000000008500000NF32  00000000000 CLO         TRAD000000000000D   112    000000000000000000000000000000000        ASX                      000000          #
41000420110307FCS  FB   000000151900000008000000000001CHES6 ST    COK   00000000                         AUD01S00000000000000000000330800000000000005DAUD000000000038DAUD000000000000D   000000000017DAUD000000000000000000D000000000000000000000000000000000D   000000000000000000D000000000000172016C2011030720110310024275000000001630046067          AU000000COK9000000005200000NF32  00000000000 COK         TRAD000000000000D   112    000000000000000000000000000000000        ASX                      000000          #
41000420110307FCS  FB   000000151900000008000000000001CHES6 ST    CPU   00000000                         AUD01S00000000000000000000002200000000000001DAUD000000000005DAUD000000000000D   000000000002DAUD000000000000000000D000000000000000000000000000000000D   000000000000000000D000000000000021252C2011030720110310024367000000001640038432          AU000000CPU5000000096600000NF32  00000000000 CPU         TRAD000000000000D   112    000000000000000000000000000000000        ASX                      000000          #
41000420110307FCS  FB   000000151900000008000000000001CHES6 ST    CPU   00000000                         AUD01S00000000000000000000014200000000000004DAUD000000000030DAUD000000000000D   000000000014DAUD000000000000000000D000000000000000000000000000000000D   000000000000000000D000000000000137172C2011030720110310024368000000001640038433          AU000000CPU5000000096600000NF32  00000000000 CPU         TRAD000000000000D   112    000000000000000000000000000000000        ASX                      000000          #
41000420110307FCS  FB   000000151900000008000000000001CHES6 ST    CPU   00000000                         AUD01S00000000000000000000001700000000000000DAUD000000000004DAUD000000000000D   000000000002DAUD000000000000000000D000000000000000000000000000000000D   000000000000000000D000000000000016422C2011030720110310024369000000001640038434          AU000000CPU5000000096600000NF32  00000000000 CPU         TRAD000000000000D   112    000000000000000000000000000000000        ASX                      000000          #
41000420110307FCS  FB   000000151900000008000000000001CHES6 ST    CPU   00000000                         AUD01S00000000000000000000008500000000000002DAUD000000000018DAUD000000000000D   000000000008DAUD000000000000000000D000000000000000000000000000000000D   000000000000000000D000000000000082110C2011030720110310024370000000001640038435          AU000000CPU5000000096600000NF32  00000000000 CPU         TRAD000000000000D   112    000000000000000000000000000000000        ASX                      000000          #
41000420110307FCS  FB   000000151900000008000000000001CHES6 ST    EQN   00000000                         AUD01S00000000000000000000045900000000000008DAUD000000000059DAUD000000000000D   000000000026DAUD000000000000000000D000000000000000000000000000000000D   000000000000000000D000000000000266220C2011030720110310024401000000001610052469          AU000000EQN4000000058000000NF32  00000000000 EQN         TRAD000000000000D   112    000000000000000000000000000000000        ASX                      000000          #
41000420110307FCS  FB   000000151900000008000000000001CHES6 ST    FMG   00000000                         AUD01S00000000000000000000048100000000000009DAUD000000000070DAUD000000000000D   000000000031DAUD000000000000000000D000000000000000000000000000000000D   000000000000000000D000000000000316979C2011030720110310024419000000001610052534          AU000000FMG4000000065900000NF32  00000000000 FMG         TRAD000000000000D   112    000000000000000000000000000000000        ASX                      000000          #
41000420110307FCS  FB   000000151900000008000000000001CHES6 ST    GRY   00000000                         AUD01S00000000000000000000123400000000000007DAUD000000000051DAUD000000000000D   000000000023DAUD000000000000000000D000000000000000000000000000000000D   000000000000000000D000000000000233843C2011030720110310024432000000001610052614          AU000000GRY4000000018950000NF32  00000000000 GRY         TRAD000000000000D   112    000000000000000000000000000000000        ASX                      000000          #
41000420110307FCS  FB   000000151900000008000000000001CHES6 ST    GRY   00000000                         AUD01S00000000000000000000039800000000000002DAUD000000000017DAUD000000000000D   000000000007DAUD000000000000000000D000000000000000000000000000000000D   000000000000000000D000000000000075421C2011030720110310024433000000001610052615          AU000000GRY4000000018950000NF32  00000000000 GRY         TRAD000000000000D   112    000000000000000000000000000000000        ASX                      000000          #
41000420110307FCS  FB   000000151900000080020000000001CHES6 ST    IAA   00000000                         AUD01S00000000000000000000001700000000000002DAUD000000000017DAUD000000000000D   000000000008DAUD000000000000000000D000000000000000000000000000000000D   000000000000000000D000000000000078115C2011030720110310011846000000001630013390          AU000000IAA6000000459500000S80   00000000000 IAA         TRAD000000000000D   112    000000000000000000000000000000000        ASX                      000000          #
41000420110307FCS  FB   000000151900000080020000000001CHES6 ST    IAA   00000000                         AUD01S00000000000000000000005600000000000007DAUD000000000057DAUD000000000000D   000000000025DAUD000000000000000000D000000000000000000000000000000000D   000000000000000000D000000000000257320C2011030720110310011847000000001630013391          AU000000IAA6000000459500000S80   00000000000 IAA         TRAD000000000000D   112    000000000000000000000000000000000        ASX                      000000          #
41000420110307FCS  FB   000000151900000080020000000001CHES6 ST    IEM   00000000                         AUD01S00000000000000000000001800000000000002DAUD000000000018DAUD000000000000D   000000000008DAUD000000000000000000D000000000000000000000000000000000D   000000000000000000D000000000000083340C2011030720110310006928000000001630006265          AU000000IEM3000000463000000S80   00000000000 IEM         TRAD000000000000D   112    000000000000000000000000000000000        ASX                      000000          #
41000420110307FCS  FB   000000151900000080020000000001CHES6 ST    IEM   00000000                         AUD01S00000000000000000000000700000000000001DAUD000000000007DAUD000000000000D   000000000003DAUD000000000000000000D000000000000000000000000000000000D   000000000000000000D000000000000032410C2011030720110310011706000000001630013103          AU000000IEM3000000463000000S80   00000000000 IEM         TRAD000000000000D   112    000000000000000000000000000000000        ASX                      000000          #
41000420110307FCS  FB   000000151900000080020000000001CHES6 ST    IEM   00000000                         AUD01S00000000000000000000004800000000000006DAUD000000000049DAUD000000000000D   000000000022DAUD000000000000000000D000000000000000000000000000000000D   000000000000000000D000000000000222240C2011030720110310011821000000001630013338          AU000000IEM3000000463000000S80   00000000000 IEM         TRAD000000000000D   112    000000000000000000000000000000000        ASX                      000000          #
41000420110307FCS  FB   000000151900000080020000000001CHES6 ST    IEM   00000000                         AUD01B00000000007000000000000000000000000001DAUD000000000007DAUD000000000000D   000000000003DAUD000000000000000000D000000000000000000000000000000000D   000000000000000000D000000000000032305D2011030720110310093994000000001630109752          AU000000IEM3000000461500000S80   00000000000 IEM         TRAD000000000000D   112    000000000000000000000000000000000        ASX                      000000          #
41000420110307FCS  FB   000000151900000008000000000001CHES6 ST    IIN   00000000                         AUD01S00000000000000000000045500000000000003DAUD000000000025DAUD000000000000D   000000000011DAUD000000000000000000D000000000000000000000000000000000D   000000000000000000D000000000000114205C2011030720110310024445000000001640038698          AU000000IIN2000000025100000NF32  00000000000 IIN         TRAD000000000000D   112    000000000000000000000000000000000        ASX                      000000          #
41000420110307FCS  FB   000000151900000080020000000001CHES6 ST    IOO   00000000                         AUD01S00000000000000000000001200000000000002DAUD000000000017DAUD000000000000D   000000000008DAUD000000000000000000D000000000000000000000000000000000D   000000000000000000D000000000000078300C2011030720110310014776000000001630022289          AU000000IOO8000000652500000S80   00000000000 IOO         TRAD000000000000D   112    000000000000000000000000000000000        ASX                      000000          #
41000420110307FCS  FB   000000151900000080020000000001CHES6 ST    IOO   00000000                         AUD01S00000000000000000000002000000000000004DAUD000000000029DAUD000000000000D   000000000013DAUD000000000000000000D000000000000000000000000000000000D   000000000000000000D000000000000130500C2011030720110310014777000000001630022290          AU000000IOO8000000652500000S80   00000000000 IOO         TRAD000000000000D   112    000000000000000000000000000000000        ASX                      000000          #
41000420110307FCS  FB   000000151900000080020000000001CHES6 ST    IOO   00000000                         AUD01B00000000042000000000000000000000000008DAUD000000000060DAUD000000000000D   000000000027DAUD000000000000000000D000000000000000000000000000000000D   000000000000000000D000000000000273630D2011030720110310025620000000001630049994          AU000000IOO8000000651500000S80   00000000000 IOO         TRAD000000000000D   112    000000000000000000000000000000000        ASX                      000000          #
41000420110307FCS  FB   000000151900000080020000000001CHES6 ST    IOO   00000000                         AUD01B00000000014000000000000000000000000003DAUD000000000020DAUD000000000000D   000000000009DAUD000000000000000000D000000000000000000000000000000000D   000000000000000000D000000000000091210D2011030720110310026859000000001630053597          AU000000IOO8000000651500000S80   00000000000 IOO         TRAD000000000000D   112    000000000000000000000000000000000        ASX                      000000          #
41000420110307FCS  FB   000000151900000080020000000001CHES6 ST    IOO   00000000                         AUD01B00000000057000000000000000000000000011DAUD000000000082DAUD000000000000D   000000000037DAUD000000000000000000D000000000000000000000000000000000D   000000000000000000D000000000000371355D2011030720110310026867000000001630053625          AU000000IOO8000000651500000S80   00000000000 IOO         TRAD000000000000D   112    000000000000000000000000000000000        ASX                      000000          #
41000420110307FCS  FB   000000151900000080020000000001CHES6 ST    IOO   00000000                         AUD01B00000000074000000000000000000000000014DAUD000000000106DAUD000000000000D   000000000048DAUD000000000000000000D000000000000000000000000000000000D   000000000000000000D000000000000481370D2011030720110310033232000000001630070408          AU000000IOO8000000650500000S80   00000000000 IOO         TRAD000000000000D   112    000000000000000000000000000000000        ASX                      000000          #
41000420110307FCS  FB   000000151900000008000000000001CHES6 ST    IPL   00000000                         AUD01S00000000000000000000069300000000000009DAUD000000000070DAUD000000000000D   000000000031DAUD000000000000000000D000000000000000000000000000000000D   000000000000000000D000000000000316008C2011030720110310026914000000001610061366          AU000000IPL1000000045600000NF32  00000000000 IPL         TRAD000000000000D   112    000000000000000000000000000000000        ASX                      000000          #
41000420110307FCS  FB   000000151900000007000000000001DVPNXTST    IPL   00000000                         AUD01B00000072389000000000000000000000000000DAUD000000012837DAUD000000000000D   000000036676DAUD000000000000000000D000000000000000000000000000000000D   000000000000000000D000000000033341650D2011030720110310146920000000000000800050          AU000000IPL1000000046059000      00000000000 IPL         TRAD000000000176D   02442  000000000000000000000000000000000        ASX                      000000          #
41000420110307FCS  FB   000000151900000080020000000001CHES6 ST    IXI   00000000                         AUD01S00000000000000000000001700000000000003DAUD000000000023DAUD000000000000D   000000000010DAUD000000000000000000D000000000000000000000000000000000D   000000000000000000D000000000000105145C2011030720110310026241000000001630052223          AU000000IXI1000000618500000S80   00000000000 IXI         TRAD000000000000D   112    000000000000000000000000000000000        ASX                      000000          #
41000420110307FCS  FB   000000151900000080020000000001CHES6 ST    IXI   00000000                         AUD01B00000000010000000000000000000000000002DAUD000000000014DAUD000000000000D   000000000006DAUD000000000000000000D000000000000000000000000000000000D   000000000000000000D000000000000061600D2011030720110310091468000000001630101245          AU000000IXI1000000616000000S80   00000000000 IXI         TRAD000000000000D   112    000000000000000000000000000000000        ASX                      000000          #
41000420110307FCS  FB   000000151900000008000000000001CHES6 ST    LEI   00000000                         AUD01S00000000000000000000000100000000000000DAUD000000000001DAUD000000000000D   000000000000DAUD000000000000000000D000000000000000000000000000000000D   000000000000000000D000000000000003139C2011030720110310024464000000001630046536          AU000000LEI5000000313900000NF32  00000000000 LEI         TRAD000000000000D   112    000000000000000000000000000000000        ASX                      000000          #
41000420110307FCS  FB   000000151900000008000000000001CHES6 ST    LEI   00000000                         AUD01S00000000000000000000000200000000000000DAUD000000000001DAUD000000000000D   000000000001DAUD000000000000000000D000000000000000000000000000000000D   000000000000000000D000000000000006278C2011030720110310024465000000001630046537          AU000000LEI5000000313900000NF32  00000000000 LEI         TRAD000000000000D   112    000000000000000000000000000000000        ASX                      000000          #
41000420110307FCS  FB   000000151900000008000000000001CHES6 ST    LEI   00000000                         AUD01S00000000000000000000000300000000000000DAUD000000000002DAUD000000000000D   000000000001DAUD000000000000000000D000000000000000000000000000000000D   000000000000000000D000000000000009417C2011030720110310024466000000001630046538          AU000000LEI5000000313900000NF32  00000000000 LEI         TRAD000000000000D   112    000000000000000000000000000000000        ASX                      000000          #
41000420110307FCS  FB   000000151900000008000000000001CHES6 ST    LEI   00000000                         AUD01S00000000000000000000000900000000000001DAUD000000000006DAUD000000000000D   000000000003DAUD000000000000000000D000000000000000000000000000000000D   000000000000000000D000000000000028251C2011030720110310024467000000001630046539          AU000000LEI5000000313900000NF32  00000000000 LEI         TRAD000000000000D   112    000000000000000000000000000000000        ASX                      000000          #
41000420110307FCS  FB   000000151900000008000000000001CHES6 ST    LEI   00000000                         AUD01S00000000000000000000007600000000000007DAUD000000000052DAUD000000000000D   000000000024DAUD000000000000000000D000000000000000000000000000000000D   000000000000000000D000000000000238564C2011030720110310024468000000001630046540          AU000000LEI5000000313900000NF32  00000000000 LEI         TRAD000000000000D   112    000000000000000000000000000000000        ASX                      000000          #
41000420110307FCS  FB   000000151900000008000000000001CHES6 ST    MIN   00000000                         AUD01S00000000000000000000023800000000000009DAUD000000000067DAUD000000000000D   000000000030DAUD000000000000000000D000000000000000000000000000000000D   000000000000000000D000000000000304164C2011030720110310024484000000001630046589          AU000000MIN4000000127800000NF32  00000000000 MIN         TRAD000000000000D   112    000000000000000000000000000000000        ASX                      000000          #
41000420110307FCS  FB   000000151900000008000000000001CHES6 ST    MQG   00000000                         AUD01S00000000000000000000007100000000000007DAUD000000000057DAUD000000000000D   000000000026DAUD000000000000000000D000000000000000000000000000000000D   000000000000000000D000000000000259576C2011030720110310024921000000001620030050          AU000000MQG1000000365600000NF32  00000000000 MQG         TRAD000000000000D   112    000000000000000000000000000000000        ASX                      000000          #
41000420110307FCS  FB   000000151900000008000000000001CHES6 ST    MSB   00000000                         AUD01S00000000000000000000024500000000000005DAUD000000000036DAUD000000000000D   000000000016DAUD000000000000000000D000000000000000000000000000000000D   000000000000000000D000000000000162190C2011030720110310024685000000001640039608          AU000000MSB8000000066200000NF32  00000000000 MSB         TRAD000000000000D   112    000000000000000000000000000000000        ASX                      000000          #
41000420110307FCS  FB   000000151900000008000000000001CHES6 ST    ORG   00000000                         AUD01S00000000000000000000017200000000000008DAUD000000000061DAUD000000000000D   000000000027DAUD000000000000000000D000000000000000000000000000000000D   000000000000000000D000000000000276748C2011030720110310024540000000001630046808          AU000000ORG5000000160900000NF32  00000000000 ORG         TRAD000000000000D   112    000000000000000000000000000000000        ASX                      000000          #
41000420110307FCS  FB   000000151900000007000000000001DVPNXTST    ORI   00000000                         AUD01S00000000000000000001236200000000000000DAUD000000012138DAUD000000000000D   000000034679DAUD000000000000000000D000000000000000000000000000000000D   000000000000000000D000000000031526438C2011030720110310146919000000000000800049          AU000000ORI1000000255027000      00000000000 ORI         TRAD000000000176D   02442  000000000000000000000000000000000        ASX                      000000          #
41000420110307FCS  FB   000000151900000008000000000001CHES6 ST    OSH   00000000                         AUD01S00000000000000000000065600000000000013DAUD000000000098DAUD000000000000D   000000000044DAUD000000000000000000D000000000000000000000000000000000D   000000000000000000D000000000000446080C2011030720110310024563000000001630046871          PG0008579883000000068000000NF32  00000000000 OSH         TRAD000000000000D   112    000000000000000000000000000000000        ASX                      000000          #
41000420110307FCS  FB   000000151900000008000000000001CHES6 ST    PNA   00000000                         AUD01S00000000000000000000361300000000000008DAUD000000000063DAUD000000000000D   000000000028DAUD000000000000000000D000000000000000000000000000000000D   000000000000000000D000000000000287234C2011030720110310024577000000001610053544          AU000000PNA4000000007950000NF32  00000000000 PNA         TRAD000000000000D   112    000000000000000000000000000000000        ASX                      000000          #
41000420110307FCS  FB   000000151900000007000000000001DVPNXTST    PRY   00000000                         AUD01S00000000000000000009271200000000000000DAUD000000010903DAUD000000000000D   000000031151DAUD000000000000000000D000000000000000000000000000000000D   000000000000000000D000000000028318880C2011030720110310146918000000000000800048          AU000000PRY5000000030545000      00000000000 PRY         TRAD000000000176D   02442  000000000000000000000000000000000        ASX                      000000          #
41000420110307FCS  FB   000000151900000008000000000001CHES6 ST    RHC   00000000                         AUD01S00000000000000000000005000000000000003DAUD000000000021DAUD000000000000D   000000000009DAUD000000000000000000D000000000000000000000000000000000D   000000000000000000D000000000000093850C2011030720110310024639000000001640039439          AU000000RHC8000000187700000NF32  00000000000 RHC         TRAD000000000000D   112    000000000000000000000000000000000        ASX                      000000          #
41000420110307FCS  FB   000000151900000008000000000001CHES6 ST    RHC   00000000                         AUD01S00000000000000000000007200000000000004DAUD000000000030DAUD000000000000D   000000000013DAUD000000000000000000D000000000000000000000000000000000D   000000000000000000D000000000000135144C2011030720110310024640000000001640039440          AU000000RHC8000000187700000NF32  00000000000 RHC         TRAD000000000000D   112    000000000000000000000000000000000        ASX                      000000          #
41000420110307FCS  FB   000000151900000008000000000001CHES6 ST    RHC   00000000                         AUD01S00000000000000000000000100000000000000DAUD000000000000DAUD000000000000D   000000000000DAUD000000000000000000D000000000000000000000000000000000D   000000000000000000D000000000000001877C2011030720110310024641000000001640039441          AU000000RHC8000000187700000NF32  00000000000 RHC         TRAD000000000000D   112    000000000000000000000000000000000        ASX                      000000          #
41000420110307FCS  FB   000000151900000008000000000001CHES6 ST    RHC   00000000                         AUD01S00000000000000000000007100000000000004DAUD000000000029DAUD000000000000D   000000000013DAUD000000000000000000D000000000000000000000000000000000D   000000000000000000D000000000000133267C2011030720110310024642000000001640039442          AU000000RHC8000000187700000NF32  00000000000 RHC         TRAD000000000000D   112    000000000000000000000000000000000        ASX                      000000          #
41000420110307FCS  FB   000000151900000008000000000001CHES6 ST    RHC   00000000                         AUD01S00000000000000000000012600000000000007DAUD000000000052DAUD000000000000D   000000000023DAUD000000000000000000D000000000000000000000000000000000D   000000000000000000D000000000000236502C2011030720110310024643000000001640039443          AU000000RHC8000000187700000NF32  00000000000 RHC         TRAD000000000000D   112    000000000000000000000000000000000        ASX                      000000          #
41000420110307FCS  FB   000000151900000008000000000001CHES6 ST    RIO   00000000                         AUD01S00000000000000000000000500000000000001DAUD000000000009DAUD000000000000D   000000000004DAUD000000000000000000D000000000000000000000000000000000D   000000000000000000D000000000000042245C2011030720110310024664000000001610053687          AU000000RIO1000000844900000NF32  00000000000 RIO         TRAD000000000000D   112    000000000000000000000000000000000        ASX                      000000          #
41000420110307FCS  FB   000000151900000008000000000001CHES6 ST    RIO   00000000                         AUD01S00000000000000000000004200000000000010DAUD000000000078DAUD000000000000D   000000000035DAUD000000000000000000D000000000000000000000000000000000D   000000000000000000D000000000000354858C2011030720110310024665000000001610053688          AU000000RIO1000000844900000NF32  00000000000 RIO         TRAD000000000000D   112    000000000000000000000000000000000        ASX                      000000          #
41000420110307FCS  FB   000000151900000008000000000001CHES6 ST    RIO   00000000                         AUD01S00000000000000000000002100000000000005DAUD000000000039DAUD000000000000D   000000000018DAUD000000000000000000D000000000000000000000000000000000D   000000000000000000D000000000000177429C2011030720110310024666000000001610053689          AU000000RIO1000000844900000NF32  00000000000 RIO         TRAD000000000000D   112    000000000000000000000000000000000        ASX                      000000          #
41000420110307FCS  FB   000000151900000008000000000001CHES6 ST    TLM   00000000                         AUD01S00000000000000000000136900000000000003DAUD000000000027DAUD000000000000D   000000000012DAUD000000000000000000D000000000000000000000000000000000D   000000000000000000D000000000000120472C2011030720110310024678000000001610053738          AU000000TLM5000000008800000NF32  00000000000 TLM         TRAD000000000000D   112    000000000000000000000000000000000        ASX                      000000          #
41000420110307FCS  FB   000000151900000007000000000001DVPNXTST    TOL   00000000                         AUD01S00000000000000000004946400000000000000DAUD000000011024DAUD000000000000D   000000031499DAUD000000000000000000D000000000000000000000000000000000D   000000000000000000D000000000028634710C2011030720110310146917000000000000800047          AU000000TOL1000000057890000      00000000000 TOL         TRAD000000000176D   02442  000000000000000000000000000000000        ASX                      000000          #
41000420110307FCS  FB   000000151900000008000000000001CHES6 ST    TSE   00000000                         AUD01S00000000000000000000100100000000000010DAUD000000000074DAUD000000000000D   000000000033DAUD000000000000000000D000000000000000000000000000000000D   000000000000000000D000000000000337337C2011030720110310026920000000001630053919          AU000000TSE7000000033700000NF32  00000000000 TSE         TRAD000000000000D   112    000000000000000000000000000000000        ASX                      000000          #
41000420110307FCS  FB   000000151900000007000000000001DVPNXTST    UGL   00000000                         AUD01B00000021021000000000000000000000000000DAUD000000012827DAUD000000000000D   000000036648DAUD000000000000000000D000000000000000000000000000000000D   000000000000000000D000000000033315973D2011030720110310146916000000000000800046          AU000000UGL5000000158489000      00000000000 UGL         TRAD000000000176D   02442  000000000000000000000000000000000        ASX                      000000          #
41000420110307FCS  FB   000000151900000008000000000001CHES6 ST    WBC   00000000                         AUD01S00000000000000000000012300000000000008DAUD000000000063DAUD000000000000D   000000000028DAUD000000000000000000D000000000000000000000000000000000D   000000000000000000D000000000000286344C2011030720110310024724000000001620029604          AU000000WBC1000000232800000NF32  00000000000 WBC         TRAD000000000000D   112    000000000000000000000000000000000        ASX                      000000          #
41000420110307FCS  FB   000000151900000080020000000001CHES6 ST    WBCPA 00000000                         AUD01B00000000041000000000000000000000000012DAUD000000000091DAUD000000000000D   000000000041DAUD000000000000000000D000000000000000000000000000000000D   000000000000000000D000000000000414305D2011030720110310100989000000001620091668          AU0000WBCPA7000001010500000S80   00000000000 WBCPA       TRAD000000000000D   112    000000000000000000000000000000000        ASX                      000000          #
41000420110307FCS  FB   000000151900000008000000000001CHES6 ST    WOR   00000000                         AUD01S00000000000000000000001200000000000001DAUD000000000008DAUD000000000000D   000000000004DAUD000000000000000000D000000000000000000000000000000000D   000000000000000000D000000000000037572C2011030720110310024776000000001630047583          AU000000WOR2000000313100000NF32  00000000000 WOR         TRAD000000000000D   112    000000000000000000000000000000000        ASX                      000000          #
41000420110307FCS  FB   000000151900000008000000000001CHES6 ST    WOR   00000000                         AUD01S00000000000000000000011600000000000010DAUD000000000080DAUD000000000000D   000000000036DAUD000000000000000000D000000000000000000000000000000000D   000000000000000000D000000000000363196C2011030720110310024777000000001630047589          AU000000WOR2000000313100000NF32  00000000000 WOR         TRAD000000000000D   112    000000000000000000000000000000000        ASX                      000000          #41000420110307FCS  FB   000000151800000000010000000001NMCS  PR    WBCPB 00000000                         AUD01S00000000000000000000003800000000000000D   000000000000DAUD000000000000D   000000000000DAUD000000000000000000D000000000000000000000000000000000D   000000000000000000D000000000000413060C2011030420110309165047000000000000000001          AU0000WBCPB5000001087000000      00000000000 WBCPB           000000000000D   0      000000000000000000000000000000000        ASX TFR REQ              000000          #
41000420110307FCS  FB   000000151800000099910000000001NMCS  PR    WBCPB 00000000                         AUD01B00000000038000000000000000000000000000D   000000000000DAUD000000000000D   000000000000DAUD000000000000000000D000000000000000000000000000000000D   000000000000000000D000000000000413060D2011030420110309165048000000000000000001          AU0000WBCPB5000001087000000      00000000000 WBCPB           000000000000D   0      000000000000000000000000000000000        ASX TFR REQ              000000          #
41000420110307FCS  FB   000000151800000099910000000001NMCS  PR    WBCPB 00000000                         AUD01S00000000000000000000003800000000000000D   000000000000DAUD000000000000D   000000000000DAUD000000000000000000D000000000000000000000000000000000D   000000000000000000D000000000000411255C2011030420110309165050000000000000000001          AU0000WBCPB5000001082250000      00000000000 WBCPB           000000000000D   0      000000000000000000000000000000000        ASX TFR REQ              000000          #
41000420110307FCS  FB   000000151800000000910000000001CHESS ST    AQC   00000000                         AUD01B00000161389000000000000000000000000030DAUD000000000234DAUD000000000000D   000000000105DAUD000000000000000000D000000000000000000000000000000000D   000000000000000000D000000000001065167D2011030720110310012016000000001610017250          AU000000AQC5000000000660000NF90  00000000000 AQC         TRAD000000000000D   112    000000000000000000000000000000000        ASX                      000000          #
41000420110307FCS  FB   000000151800000000910000000001CHESS ST    AQC   00000000                         AUD01B00000038611000000000000000000000000007DAUD000000000056DAUD000000000000D   000000000025DAUD000000000000000000D000000000000000000000000000000000D   000000000000000000D000000000000254833D2011030720110310013449000000001610021559          AU000000AQC5000000000660000NF90  00000000000 AQC         TRAD000000000000D   112    000000000000000000000000000000000        ASX                      000000          #
41000420110307FCS  FB   000000151800000000910000000001CHESS ST    ATN   00000000                         AUD01S00000000000000000005500000000000000008DAUD000000000059DAUD000000000000D   000000000027DAUD000000000000000000D000000000000000000000000000000000D   000000000000000000D000000000000269500C2011030720110310003151000000001610000656          AU000000ATN6000000000490000NF90  00000000000 ATN         TRAD000000000000D   112    000000000000000000000000000000000        ASX                      000000          #
41000420110307FCS  FB   000000151800000000210000000001CHESS ST    CSE   00000000                         AUD01B00000013372000000000000000000000000005DAUD000000000040DAUD000000000000D   000000000018DAUD000000000000000000D000000000000000000000000000000000D   000000000000000000D000000000000180522D2011030720110310011005000000001610015113          AU000000CSE3000000001350000NF8   00000000000 CSE         TRAD000000000000D   112    000000000000000000000000000000000        ASX                      000000          #
41000420110307FCS  FB   000000151800000000210000000001CHESS ST    CSE   00000000                         AUD01B00000004285000000000000000000000000002DAUD000000000013DAUD000000000000D   000000000006DAUD000000000000000000D000000000000000000000000000000000D   000000000000000000D000000000000059990D2011030720110310026758000000001610060680          AU000000CSE3000000001400000NF8   00000000000 CSE         TRAD000000000000D   112    000000000000000000000000000000000        ASX                      000000          #
41000420110307FCS  FB   000000151800000000210000000001CHESS ST    CSE   00000000                         AUD01B00000100000000000000000000000000000040DAUD000000000308DAUD000000000000D   000000000139DAUD000000000000000000D000000000000000000000000000000000D   000000000000000000D000000000001400000D2011030720110310026887000000001610061178          AU000000CSE3000000001400000NF8   00000000000 CSE         TRAD000000000000D   112    000000000000000000000000000000000        ASX                      000000          #
41000420110307FCS  FB   000000151800000000210000000001CHESS ST    CSE   00000000                         AUD01B00000082343000000000000000000000000033DAUD000000000254DAUD000000000000D   000000000114DAUD000000000000000000D000000000000000000000000000000000D   000000000000000000D000000000001152802D2011030720110310028777000000001610067398          AU000000CSE3000000001400000NF8   00000000000 CSE         TRAD000000000000D   112    000000000000000000000000000000000        ASX                      000000          #
