41000420110307FCS  FB   000000151900000003130000000001CHES6 ST    CBAPA 00000000                         AUD01S00000000000000000000001700000000000010DAUD000000000077DAUD000000000000D   000000000035DAUD000000000000000000D000000000000000000000000000000000D   000000000000000000D000000000000351730C2011030720110310025257000000001620030723          AU0000CBAPA3000002069000000NF26  00000000000 CBAPA       TRAD000000000000D   112    000000000000000000000000000000000        ASX                      000000          #
41000420110307FCS  FB   000000151900000080020000000001CHES6 ST    CBAPA 00000000                         AUD01B00000000050000000000000000000000000030DAUD000000000228DAUD000000000000D   000000000102DAUD000000000000000000D000000000000000000000000000000000D   000000000000000000D000000000001034250D2011030720110310039560000000001620053000          AU0000CBAPA3000002068500000S80   00000000000 CBAPA       TRAD000000000000D   112    000000000000000000000000000000000        ASX                      000000          #
41000420110307FCS  FB   000000151900000080020000000001CHES6 ST    CBAPA 00000000                         AUD01B00000000444000000000000000000000000263DAUD000000002021DAUD000000000000D   000000000909DAUD000000000000000000D000000000000000000000000000000000D   000000000000000000D000000000009184140D2011030720110310044098000000001620054055          AU0000CBAPA3000002068500000S80   00000000000 CBAPA       TRAD000000000000D   112    000000000000000000000000000000000        ASX                      000000          #
41000420110307FCS  FB   000000151900000080020000000001CHES6 ST    CBAPA 00000000                         AUD01B00000000011000000000000000000000000007DAUD000000000050DAUD000000000000D   000000000023DAUD000000000000000000D000000000000000000000000000000000D   000000000000000000D000000000000227425D2011030720110310066245000000001620056073          AU0000CBAPA3000002067500000S80   00000000000 CBAPA       TRAD000000000000D   112    000000000000000000000000000000000        ASX                      000000          #
41000420110307FCS  FB   000000151900000080020000000001CHES6 ST    CBAPA 00000000                         AUD01B00000000024000000000000000000000000014DAUD000000000109DAUD000000000000D   000000000049DAUD000000000000000000D000000000000000000000000000000000D   000000000000000000D000000000000495960D2011030720110310092477000000001620071617          AU0000CBAPA3000002066500000S80   00000000000 CBAPA       TRAD000000000000D   112    000000000000000000000000000000000        ASX                      000000          #
